{
  "address": "0x223F192a0F865184d08606529212d66435235514",
  "abi": [
    {
      "inputs": [
        {
          "internalType": "address",
          "name": "priceFeedAddress",
          "type": "address"
        }
      ],
      "stateMutability": "nonpayable",
      "type": "constructor"
    },
    {
      "inputs": [],
      "name": "NotOwner",
      "type": "error"
    },
    {
      "inputs": [],
      "name": "MINIMUM_USD",
      "outputs": [
        {
          "internalType": "uint256",
          "name": "",
          "type": "uint256"
        }
      ],
      "stateMutability": "view",
      "type": "function"
    },
    {
      "inputs": [],
      "name": "fundRaising",
      "outputs": [],
      "stateMutability": "payable",
      "type": "function"
    },
    {
      "inputs": [
        {
          "internalType": "address",
          "name": "",
          "type": "address"
        }
      ],
      "name": "funderAmount",
      "outputs": [
        {
          "internalType": "uint256",
          "name": "",
          "type": "uint256"
        }
      ],
      "stateMutability": "view",
      "type": "function"
    },
    {
      "inputs": [
        {
          "internalType": "uint256",
          "name": "",
          "type": "uint256"
        }
      ],
      "name": "funders",
      "outputs": [
        {
          "internalType": "address",
          "name": "",
          "type": "address"
        }
      ],
      "stateMutability": "view",
      "type": "function"
    },
    {
      "inputs": [],
      "name": "i_owner",
      "outputs": [
        {
          "internalType": "address",
          "name": "",
          "type": "address"
        }
      ],
      "stateMutability": "view",
      "type": "function"
    },
    {
      "inputs": [],
      "name": "priceFeed",
      "outputs": [
        {
          "internalType": "contract AggregatorV3Interface",
          "name": "",
          "type": "address"
        }
      ],
      "stateMutability": "view",
      "type": "function"
    },
    {
      "inputs": [],
      "name": "withdrawal",
      "outputs": [],
      "stateMutability": "nonpayable",
      "type": "function"
    }
  ],
  "transactionHash": "0x3d144dbfb6c0d46592a6657f4cd57ee3685daf2079b914d37a963f7e26ba5973",
  "args": [
    "0xd4a33860578de61dbabdc8bfdb98fd742fa7028e"
  ],
  "numDeployments": 1,
  "solcInputHash": "4d1d8f170a781c9e880474e4a3c60c8c",
  "bytecode": "0x60a060405234801561001057600080fd5b50604051610f02380380610f0283398181016040528101906100329190610110565b80600260006101000a81548173ffffffffffffffffffffffffffffffffffffffff021916908373ffffffffffffffffffffffffffffffffffffffff1602179055503373ffffffffffffffffffffffffffffffffffffffff1660808173ffffffffffffffffffffffffffffffffffffffff16815250505061013d565b600080fd5b600073ffffffffffffffffffffffffffffffffffffffff82169050919050565b60006100dd826100b2565b9050919050565b6100ed816100d2565b81146100f857600080fd5b50565b60008151905061010a816100e4565b92915050565b600060208284031215610126576101256100ad565b5b6000610134848285016100fb565b91505092915050565b608051610da361015f6000396000818161031701526105570152610da36000f3fe6080604052600436106100705760003560e01c8063af5e73a41161004e578063af5e73a4146100d5578063d4e9329214610112578063dba6335f14610129578063dc0d3dff1461015457610070565b806348e0f410146100755780636b69a5921461007f578063741bef1a146100aa575b600080fd5b61007d610191565b005b34801561008b57600080fd5b506100946102cb565b6040516100a19190610745565b60405180910390f35b3480156100b657600080fd5b506100bf6102d7565b6040516100cc91906107df565b60405180910390f35b3480156100e157600080fd5b506100fc60048036038101906100f7919061083d565b6102fd565b6040516101099190610745565b60405180910390f35b34801561011e57600080fd5b50610127610315565b005b34801561013557600080fd5b5061013e610555565b60405161014b9190610879565b60405180910390f35b34801561016057600080fd5b5061017b600480360381019061017691906108c0565b610579565b6040516101889190610879565b60405180910390f35b678ac7230489e800006101cf600260009054906101000a900473ffffffffffffffffffffffffffffffffffffffff16346105b890919063ffffffff16565b1015610210576040517f08c379a00000000000000000000000000000000000000000000000000000000081526004016102079061094a565b60405180910390fd5b6000339080600181540180825580915050600190039060005260206000200160009091909190916101000a81548173ffffffffffffffffffffffffffffffffffffffff021916908373ffffffffffffffffffffffffffffffffffffffff16021790555034600160003373ffffffffffffffffffffffffffffffffffffffff1673ffffffffffffffffffffffffffffffffffffffff16815260200190815260200160002060008282546102c29190610999565b92505081905550565b678ac7230489e8000081565b600260009054906101000a900473ffffffffffffffffffffffffffffffffffffffff1681565b60016020528060005260406000206000915090505481565b7f000000000000000000000000000000000000000000000000000000000000000073ffffffffffffffffffffffffffffffffffffffff163373ffffffffffffffffffffffffffffffffffffffff161461039a576040517f30cd747100000000000000000000000000000000000000000000000000000000815260040160405180910390fd5b60003373ffffffffffffffffffffffffffffffffffffffff16476040516103c0906109fe565b60006040518083038185875af1925050503d80600081146103fd576040519150601f19603f3d011682016040523d82523d6000602084013e610402565b606091505b5050905080610446576040517f08c379a000000000000000000000000000000000000000000000000000000000815260040161043d90610a85565b60405180910390fd5b60005b6000805490508110156104f157600080828154811061046b5761046a610aa5565b5b9060005260206000200160009054906101000a900473ffffffffffffffffffffffffffffffffffffffff1690506000600160008373ffffffffffffffffffffffffffffffffffffffff1673ffffffffffffffffffffffffffffffffffffffff168152602001908152602001600020819055505080806104e990610ad4565b915050610449565b50600067ffffffffffffffff81111561050d5761050c610b1c565b5b60405190808252806020026020018201604052801561053b5781602001602082028036833780820191505090505b5060009080519060200190610551929190610685565b5050565b7f000000000000000000000000000000000000000000000000000000000000000081565b6000818154811061058957600080fd5b906000526020600020016000915054906101000a900473ffffffffffffffffffffffffffffffffffffffff1681565b6000806105c4836105f4565b90506000670de0b6b3a764000082866105dd9190610b4b565b6105e79190610bbc565b9050809250505092915050565b6000808273ffffffffffffffffffffffffffffffffffffffff1663feaf968c6040518163ffffffff1660e01b815260040160a060405180830381865afa158015610642573d6000803e3d6000fd5b505050506040513d601f19601f820116820180604052508101906106669190610c7a565b5050509150506402540be4008161067d9190610cf5565b915050919050565b8280548282559060005260206000209081019282156106fe579160200282015b828111156106fd5782518260006101000a81548173ffffffffffffffffffffffffffffffffffffffff021916908373ffffffffffffffffffffffffffffffffffffffff160217905550916020019190600101906106a5565b5b50905061070b919061070f565b5090565b5b80821115610728576000816000905550600101610710565b5090565b6000819050919050565b61073f8161072c565b82525050565b600060208201905061075a6000830184610736565b92915050565b600073ffffffffffffffffffffffffffffffffffffffff82169050919050565b6000819050919050565b60006107a56107a061079b84610760565b610780565b610760565b9050919050565b60006107b78261078a565b9050919050565b60006107c9826107ac565b9050919050565b6107d9816107be565b82525050565b60006020820190506107f460008301846107d0565b92915050565b600080fd5b600061080a82610760565b9050919050565b61081a816107ff565b811461082557600080fd5b50565b60008135905061083781610811565b92915050565b600060208284031215610853576108526107fa565b5b600061086184828501610828565b91505092915050565b610873816107ff565b82525050565b600060208201905061088e600083018461086a565b92915050565b61089d8161072c565b81146108a857600080fd5b50565b6000813590506108ba81610894565b92915050565b6000602082840312156108d6576108d56107fa565b5b60006108e4848285016108ab565b91505092915050565b600082825260208201905092915050565b7f74686520616d6f756e74206973206e6f7420656e6f7567682e2e2e0000000000600082015250565b6000610934601b836108ed565b915061093f826108fe565b602082019050919050565b6000602082019050818103600083015261096381610927565b9050919050565b7f4e487b7100000000000000000000000000000000000000000000000000000000600052601160045260246000fd5b60006109a48261072c565b91506109af8361072c565b92508282019050808211156109c7576109c661096a565b5b92915050565b600081905092915050565b50565b60006109e86000836109cd565b91506109f3826109d8565b600082019050919050565b6000610a09826109db565b9150819050919050565b7f596f7520617265206e6f742074686520636f6e7472616374204f776e65722e2e60008201527f2e00000000000000000000000000000000000000000000000000000000000000602082015250565b6000610a6f6021836108ed565b9150610a7a82610a13565b604082019050919050565b60006020820190508181036000830152610a9e81610a62565b9050919050565b7f4e487b7100000000000000000000000000000000000000000000000000000000600052603260045260246000fd5b6000610adf8261072c565b91507fffffffffffffffffffffffffffffffffffffffffffffffffffffffffffffffff8203610b1157610b1061096a565b5b600182019050919050565b7f4e487b7100000000000000000000000000000000000000000000000000000000600052604160045260246000fd5b6000610b568261072c565b9150610b618361072c565b9250828202610b6f8161072c565b91508282048414831517610b8657610b8561096a565b5b5092915050565b7f4e487b7100000000000000000000000000000000000000000000000000000000600052601260045260246000fd5b6000610bc78261072c565b9150610bd28361072c565b925082610be257610be1610b8d565b5b828204905092915050565b600069ffffffffffffffffffff82169050919050565b610c0c81610bed565b8114610c1757600080fd5b50565b600081519050610c2981610c03565b92915050565b6000819050919050565b610c4281610c2f565b8114610c4d57600080fd5b50565b600081519050610c5f81610c39565b92915050565b600081519050610c7481610894565b92915050565b600080600080600060a08688031215610c9657610c956107fa565b5b6000610ca488828901610c1a565b9550506020610cb588828901610c50565b9450506040610cc688828901610c65565b9350506060610cd788828901610c65565b9250506080610ce888828901610c1a565b9150509295509295909350565b6000610d0082610c2f565b9150610d0b83610c2f565b9250828202610d1981610c2f565b91507f80000000000000000000000000000000000000000000000000000000000000008414600084121615610d5157610d5061096a565b5b8282058414831517610d6657610d6561096a565b5b509291505056fea264697066735822122009fe3b2035285b67423493b338dae2121d50733acaf44285fe8971ee2534d67864736f6c63430008120033",
  "devdoc": {
    "kind": "dev",
    "methods": {},
    "version": 1
  },
  "userdoc": {
    "kind": "user",
    "methods": {},
    "version": 1
  },
  "storageLayout": {
    "storage": [
      {
        "astId": 62,
        "contract": "contracts/FundME.sol:FundMe",
        "label": "funders",
        "offset": 0,
        "slot": "0",
        "type": "t_array(t_address)dyn_storage"
      },
      {
        "astId": 66,
        "contract": "contracts/FundME.sol:FundMe",
        "label": "funderAmount",
        "offset": 0,
        "slot": "1",
        "type": "t_mapping(t_address,t_uint256)"
      },
      {
        "astId": 71,
        "contract": "contracts/FundME.sol:FundMe",
        "label": "priceFeed",
        "offset": 0,
        "slot": "2",
        "type": "t_contract(AggregatorV3Interface)45"
      }
    ],
    "types": {
      "t_address": {
        "encoding": "inplace",
        "label": "address",
        "numberOfBytes": "20"
      },
      "t_array(t_address)dyn_storage": {
        "base": "t_address",
        "encoding": "dynamic_array",
        "label": "address[]",
        "numberOfBytes": "32"
      },
      "t_contract(AggregatorV3Interface)45": {
        "encoding": "inplace",
        "label": "contract AggregatorV3Interface",
        "numberOfBytes": "20"
      },
      "t_mapping(t_address,t_uint256)": {
        "encoding": "mapping",
        "key": "t_address",
        "label": "mapping(address => uint256)",
        "numberOfBytes": "32",
        "value": "t_uint256"
      },
      "t_uint256": {
        "encoding": "inplace",
        "label": "uint256",
        "numberOfBytes": "32"
      }
    }
  }
}